:020000040800F2
:10000000981400207902000851270008DF1F00081B
:100010004D270008471C00087F350008000000003D
:10002000000000000000000000000000C52A0008D9
:10003000D51D000800000000D9270008D92B0008B2
:10004000930200089302000893020008930200083C
:10005000930200089302000893020008930200082C
:10006000D91D0008930200089302000893020008BB
:10007000930200089302000893020008930200080C
:1000800093020008930200089302000893020008FC
:1000900093020008930200089302000893020008EC
:1000A00093020008930200089302000893020008DC
:1000B0003D2C0008A52D00084D2E000893020008D5
:1000C00093020008930200089302000893020008BC
:1000D00093020008D53000085D310008A532000801
:1000E000930200089302000893020008930200089C
:1000F000930200089302000893020008930200088C
:10010000930200089302000893020008930200087B
:10011000930200089302000893020008FD2E0008D5
:10012000930200089302000893020008930200085B
:1001300000F002F800F090F80AA090E8000C824469
:100140008344AAF10107DA4501D100F085F8AFF246
:10015000090EBAE80F0013F0010F18BFFB1A43F0A5
:1001600001031847B08B0000D08B0000103A24BF69
:1001700078C878C1FAD8520724BF30C830C144BF0C
:1001800004680C607047000000230024002500264E
:10019000103A28BF78C1FBD8520728BF30C148BFEA
:1001A0000B6070476E2900F0CC83702900F09381BA
:1001B000662907F00486652907F00186672907F09C
:1001C000FE856129AFF3008003681B0A28BF41F058
:1001D0008001692900F00481642900F001817529FA
:1001E00000F0FE806F2900F0D086782900F05F8152
:1001F000E92900F06B86E42900F06886F52900F013
:100200006586EF2900F0CD86F82900F05E8103684D
:10021000DB0928BF41F08001632900F0DA857329EA
:1002200000F0DF85E32900F0C187F32900F0C687DD
:10023000002070471FB500F025FF040000200021BA
:1002400006F076FC401C60600020002106F05AFC9D
:10025000E0601FBD10B510BD01F0BDF81146FFF7FD
:10026000E9FF04F05FFF01F0E9F803B4FFF7F2FFE4
:1002700003BC03F00AFA0000094880470948004718
:10028000FEE7FEE7FEE7FEE7FEE7FEE7FEE7FEE746
:10029000FEE7FEE704480549054A064B70470000A3
:1002A000DD2B000831010008980E00209814002072
:1002B0009810002098100020704710B54C1084EA68
:1002C000530404D54042C1F1000138BF491E1B420E
:1002D00004D55242C3F1000338BF5B1E00F044FA5C
:1002E00014F0804F04D04042C1F1000138BF491ED4
:1002F00014F0004F04D05242C3F1000338BF5B1E1C
:1003000010BD00001CB50C46064B7B4469460090AE
:10031000204600F03CFD04460020694600F04AFDFE
:1003200020461CBDA70A00000FB4044910B503AA5B
:10033000029800F05BFD10BC5DF814FB8800002003
:1003400070B5044685690068C10601D5302600E015
:100350002026C00707D070BDD4E901213046904760
:10036000206A401C20626D1EF6D570BD70B5044633
:1003700085690078C00707D170BDD4E9012120202C
:100380009047206A401C20626D1EF6D570BD70B586
:100390000C460546012A05D02878800600D5EA6972
:1003A000002302E0012305E05B1C934202D2E05CE3
:1003B0000028F9D1A869E618C01AA861286A18446B
:1003C00028622846FFF7BCFF04E0D5E9012114F8B4
:1003D000010B9047B442F8D32846FFF7C7FF70BD22
:1003E0002DE9F0410646002410687529314616A50E
:1003F00010D000F03BFA002802DA404213A507E0D3
:1004000031688A0701D512A502E0490704D511A574
:10041000012401E000F033FA00210A2206F124074A
:1004200009E0B0FBF2FCB0FBF2F302FB1C00303041
:1004300078541846491C0028F3D123462A463046F2
:10044000BDE8F04100F024BA000000002D000000DB
:100450002B00000020000000F0B40D4601880905C3
:1004600002D5214C7C4402E01F4C7C440E34002118
:1004700000F1240608E002F00F071209E75D42EAE6
:1004800003721B097754491C52EA0307F3D102781F
:100490000023120704D5702D06D009B102231134B0
:1004A0002246F0BC00F0F4B901231034F8E770B52F
:1004B00004460D462146106800F0E1F9024629463F
:1004C0002046BDE870400023C6E7D21D22F0070396
:1004D000D3E90023C0E70368126843F020030360F8
:1004E0000823C3610023B7E7928600002DE9F05F7F
:1004F000894604464FF0000ADFF874B1FB44C0F8A7
:1005000020A02046E1688847002874D0252806D01E
:10051000D4E901219047206A401C2062F1E70026BF
:100520005F462046E16888472028054607DB312DD5
:1005300005D2781910F8200C08B10643F1E7B0078E
:1005400001D526F00406C4F81CA00027C4F818A0A2
:100550002A2D09D0284603F091F838B304EB870818
:10056000303DC8F8185019E059F8041B204604EB38
:1005700087029161E1688847012F054618D1E0693B
:10058000002820DA26F020061DE0D8F8180000EB3D
:10059000800005EB40003038C8F818002046E168BC
:1005A0008847054603F06AF80028EED1012F0AD0EB
:1005B0002E2D08D12046E16888477F1C0546022F72
:1005C00046F02006C4DBA069002803DA404246F06A
:1005D0000106A061F00701D026F010066C2D0BD0AB
:1005E000682D09D04C2D39D06A2D35D0742D35D0D9
:1005F0007A2D33D016E038E0E1682F462046884750
:10060000B842054609D16C2F26D04FF48060E168CE
:10061000064320468847054604E06C2F1AD04FF465
:10062000807006430DB3A5F14100192802D820358A
:1006300046F400664A462946204626604E46FFF7A5
:10064000B1FD80B101280BD0F61D26F0070000F1A6
:10065000080956E74020E4E78020D8E70020D6E7E5
:1006600006F104094DE7284652E7206ABDE8F09FED
:100670002286000070B5064600F072F80468054650
:1006800030460A22002100F097FC2C6070BD30B586
:1006900005460B462A4613F8014B12F8010B08B128
:1006A000A042F8D01CB1002802D06D1CF1E728460A
:1006B00030BD40EA010310B59B070FD1042A0DD3CA
:1006C00010C808C9121F9C42F8D020BA19BA884233
:1006D00001D9012010BD4FF0FF3010BD1AB1D30772
:1006E00003D0521C07E0002010BD10F8013B11F8A8
:1006F000014B1B1B07D110F8013B11F8014B1B1BD1
:1007000001D1921EF1D1184610BD10B5431C02E074
:1007100010F8011B71B18107FAD14FF0013202C804
:100720008C1A8C4314EAC211F9D0C01A0A0603D0FD
:10073000C01E10BDC01A10BD0A0401D0801E10BD1D
:100740000902FCD0401E10BD02F0FF0343EA032261
:1007500042EA024200F06ABC704770477047704737
:1007600000487047380E002053EA020C00F0698000
:100770002DE9F04B4FF00006002B1FBFB3FA83F5B5
:1007800003FA05F424FA05F65E4012BF1643B2FAE6
:1007900082F502FA05F4C5F120051EBF22FA05FC18
:1007A00044EA0C04203556EA044C4FEA144418BFBE
:1007B000641C4FF000084FF00009904271EB030CED
:1007C00039D3002919BFB1FA81F701FA07F6B0FA57
:1007D00080F700FA07F6C7F120071EBF20FA07FCD2
:1007E00046EA0C062037B6FBF4FCA7EB0507103FE2
:1007F00007F01F0BCBF120060CFA0BFB2CFA06F6C8
:1008000044BFB3460026202FA4BF5E464FF0000B26
:100810005BEA060C08BF4FF0010B19EB0B09ABFBB1
:10082000027C48EB0608C01B06FB02CC0BFB03CC8A
:1008300071EB0C01C1E70B46024641464846BDE854
:10084000F08B13B54FF000004FF00001AFF30080C4
:10085000BDE81C40704710B5FFF782FF006810BD6F
:1008600010B50446FFF77CFF046010BD09684A0517
:1008700001D540B27047C905FCD500B27047096880
:100880004A0501D5C0B27047C905FCD580B2704792
:100890002DE9F0470D4699469246044600F124089A
:1008A0000168880604D5E06921F01001216000E0AC
:1008B0000120A84201DD471B00E00027A1697A1949
:1008C00002EB0900081AA0612078C00602D4204675
:1008D000FFF736FD002608E0D4E901211AF80600EA
:1008E0009047206A401C761C20624E45F4DB20783D
:1008F000C0060AD52046FFF723FD06E0D4E9012112
:1009000030209047206A401C2062381EA7F1010762
:10091000F4DC07E0D4E9012118F805009047206ACB
:10092000401C2062281EA5F10105F3DC2046FFF7DC
:100930001DFD2078000602D50220BDE8F0870120C9
:10094000FBE711680268006A530501D508700AE0E8
:10095000D30501D5088006E0130603D5C217C1E907
:10096000000200E008600120704770472DE9FF4F4A
:100970000C461E464FF0FF378BB0D2E90001DDF880
:1009800060800A908A46C1F30A5505B93D460021A8
:1009900008464FF00000BAF1000F00F4400005DAFD
:1009A00000EB80004FF4400101EA50004FEA9059FB
:1009B000B9F1010F00DDB9460A9850EA4A000ED09D
:1009C00044F61050A5F2FF3545432F14B8F1000F3F
:1009D0001ED07542291E1EDDC9F100021CE0B8F1CF
:1009E000010F4FF0000001D0302103E0F24305E099
:1009F0002154401CB042FBDB304600220021215430
:100A00000B99C1F80880C1E900200FB0BDE8F08F54
:100A1000BD1B6D1CDEE74A4600DA694206A800F0FD
:100A200021FC06AB93E8070003AB83E807005046C0
:100A30000A9900F04DFD8DE80700A0F500501F3821
:100A400000900398002D09DD42F21F014A46084438
:100A500003A90390684600F0ACFF08E0A0F5005041
:100A60004A461F3803A90390684600F0B6FF8DE898
:100A700007000004000C03D04FF0FF30410800E0F5
:100A80001046B8F1000F03D00022009215461EE078
:100A9000751E05D400F0FAFA303262556D1EF9D594
:100AA000B3460122084302D000227F1C04E02078D4
:100AB000302801D100227F1E002A099786D01DE030
:100AC000112D07DA00F0E2FA303262556D1C50EA5F
:100AD0000102F5D1084302D00098C8B10EE0002110
:100AE000681E05E0235C625C63542254401E491C6E
:100AF0008142F7DBAB46A81B401E0990002004F89A
:100B00000B000B98099AC0F80880C0E9002B7CE71D
:100B100011264FF0000859E72DE9F04F88460446AA
:100B2000D21D22F0070191B0D1E90001CDE90A01FF
:100B300002F027FD02460B98C00F01D02D2007E0E0
:100B40002068810701D52B2002E0202101EAC000A6
:100B5000032A099001D0072A05DB034641462046B7
:100B600000F0DAFA0BE12078800601D5E06900E0B8
:100B70000620B8F1650F814606D0B8F1660F18D08F
:100B8000B8F1670F70D131E00020B9F1110F00907A
:100B900001DB112301E009F101030AAA01A90CA854
:100BA000FFF7E4FEDDE90C70002609F1010583463C
:100BB00047E001204B4600904FF000470AAA01A9E8
:100BC0000CA8FFF7D3FEDDE90DB00C995D460026B9
:100BD00010B909F101000D18B9EB050003D4C0F1FB
:100BE000FF3609F10105A5EB09002BE0B9F1010F72
:100BF00001DA4FF001090020B9F1110F00904846C9
:100C000001DD112300E003460AAA01A90CA8FFF7A1
:100C1000ADFEDDE90C704D460026834620780007C6
:100C20000AD4AB4500DA5D4601A8012D04DD411967
:100C300011F8011C302907D04F4502DA17F1040FD3
:100C400004DA012082460FE06D1EEEE7002F02DC81
:100C5000ED1B3E4403E0781CA84200DD7D1CB81B60
:100C600000F1010A4FF000472078000703D4AA459D
:100C700001DB4FF0FF3A0021B7F1004F0DF14308BF
:100C80008DF8431024D002202B23002F01DA7F425D
:100C90002D230A21021EA0F1010000DC5FB197FBA9
:100CA000F1FC97FBF1F201FB1C7C17460CF1300CB8
:100CB00008F801CDEEE7A8F10100037021880905CD
:100CC00001D5452100E06521A0F1010800F8011CD3
:100CD00009980FA9A1EB0807FF1D00B101204119D8
:100CE00001EBEA70A1693844081A401EA06120781F
:100CF000C00602D42046FFF723FB099828B1D4E9A7
:100D000001219047206A401C20622078C00622D52D
:100D10002046FFF715FB1EE0002E04DBB34502DD85
:100D200001A8805D00E03020D4E901219047206ACD
:100D3000401C2062761CAAF101005FEA000A0AD179
:100D400000F0A0F9C0680168405CD4E90121904737
:100D5000206A401C2062281EA5F10105DCDC07E0AA
:100D6000D4E9012118F8010B9047206A401C206249
:100D7000381EA7F10107F3DC2046FFF7F7FA03203E
:100D800011B043E601694A1C02610878704700B55A
:100D90008FB0CDE901310021059105497944CDE9B4
:100DA000031011466846FFF7A1FB0FB000BD00001D
:100DB000E5FFFFFF0A6802F8010B0A60704710B5F3
:100DC000436913B1AFF3008001E0FFF7E0FA0120BF
:100DD00010BD127800F124010A7000224A7001222D
:100DE000EDE711684FF0FF32E9E70000074B70B5FF
:100DF0000D467B44FFF7CBFF0446284600F0A0FADF
:100E000010B14FF0FF3070BD204670BD673C000050
:100E10002DE9FF5F15468A460446DFF8AC80F844AA
:100E20000027D8E900103E46CDE9001010E03AF85E
:100E300016106A4602A800F087FA411C07D02178F4
:100E4000890603D5E269391891420DD80744761C0A
:100E50002078800602D5E069B84205DDAE42E6DBC7
:100E60003AF816000028E2D1A069C01BA061204614
:100E7000FFF766FAD8E90010CDE90010002017E06E
:100E80003AF818106A4602A800F05EFAB0F1FF3F87
:100E900081460BD000250DF1080B05E0D4E90121B6
:100EA0001BF8050090476D1C4D45F7D308F1010074
:100EB000B0428046E4DB206A384420622046FFF7D7
:100EC00055FABDE8FF9F0000667D00002DE9F04166
:100ED0008046D21D22F007020025D2E90002F52942
:100EE00015A614D0011E72F1000106DA0023D0EB22
:100EF000030063EB020211A608E0D8F800108B078C
:100F000001D50FA602E0490701D50EA6012511461D
:100F1000002408F1240704E000F0B8F830323A5514
:100F2000641C50EA0102F7D12B4632462146404666
:100F3000BDE8F041FFF7ACBC000000002D00000050
:100F40002B0000002000000030B4002100F1240438
:100F500008E002F00705D208303542EA4372DB08A8
:100F60006554491C52EA0305F3D10468002310A21A
:100F7000250707D5A40600D421B1C46901230DA219
:100F8000641EC46130BCFFF783BC10B50446214623
:100F90001068FFF774FC02462046BDE810400023AD
:100FA000D2E7D21D22F00701D1E90023CCE70000EF
:100FB00000000000300000002DE9F04791460F4688
:100FC00080460446002614F8015B2DB100F052F86B
:100FD0000068405DC007F6D12B2D02D02D2D18D012
:100FE000641E4A463946204600F0ECF827B13968BD
:100FF000A14201D1C7F800804FF0020471050BD562
:101000004042002803DDFFF7ABFB0460A007BDE80A
:10101000F08746F48066E4E70028F8DAFFF7A0FBE3
:1010200004606FF00040F2E74FF000020429C0F0C6
:10103000128010F0030C00F0A981CCF1040CBCF17B
:10104000020F18BF00F8012BA8BF20F8022BA1EB5C
:101050000C0100F09BB95FEAC17C24BF00F8012BB2
:1010600000F8012B48BF00F8012B7047004870477B
:10107000380E002010B500F005F8001D10BD00BFAF
:10108000B15A000000487047580E002030B5B0F14A
:101090000A024FEA900E71F100034EEA817EB0EB36
:1010A0000E0061EB91014FEA101E4EEA017E10EB3B
:1010B0000E0041EB11114FEA102E4EEA016E10EBBB
:1010C0000E0041EB11214FEA104E4EEA014E10EB9B
:1010D0000E0041EB1141401841F100014FEAD000F0
:1010E00040EA41704FEAD10110EB80054FEA8104DC
:1010F00044EA907444EB01046D1944EB0404521B60
:10110000A3414FF0000348BF0A3200D530BD401C58
:1011100041F1000130BD00002DE9F0411F460446B9
:1011200003260168072A01F4006004DB08B116A554
:1011300005E016A503E008B115A500E015A521F00E
:1011400010002060A069C01EA0610FB1401EA06108
:101150002046FFF7F5F84FB1D4E901213846904712
:10116000206A401C2062C01C206206E0206AFAE768
:10117000D4E9012115F8010B9047761EF8D22046DC
:10118000FFF7F4F8BDE8F0814E414E006E616E004D
:10119000494E4600696E660010B5436913B1AFF35E
:1011A000008001E0FFF734FE012010BD128800F13D
:1011B000240182840022C2840122EDE711684FF0ED
:1011C000FF32E9E72DE9F05F824615468B4600279E
:1011D0000AF10104B9460078302801D09DB113E02E
:1011E00014F8010B0127782803D0582801D045B105
:1011F0000AE00DB1102D07D1002714F8010B1025BE
:1012000002E0082500E00A250026B0460EE005FBB6
:10121000080005FB06F101271FFA80F801EB1046D4
:10122000B6F5803F00D3B94614F8010B294600F00B
:10123000F7F80028EBDABBF1000F05D00FB1641E00
:1012400000E05446CBF80040B9F1000F06D0FFF79C
:1012500087FA02210160C81EBDE8F09F48EA0640F7
:10126000FAE700002DE9F047814616468AB0334878
:1012700078440DC88DE80D0030487844801C03ACDC
:101280000DC884E80D0041F69B300844372190FBDF
:10129000F1F290FBF1F5A5F1800501FB12041B3C76
:1012A00002D56442012000E00020DFF890A08046D3
:1012B0000027FA44AAF1BE0A0DE0E00709D0324641
:1012C000684607EB47010AEB810100F086FB8DE8D9
:1012D000070064107F1C002CEFD1184F7F44AC3FF7
:1012E00018E0E80714D007EB04100DF1180A90E895
:1012F0000E008AE80E00C068F04201D198190890EB
:10130000324606A903A800F068FB03AB83E8070098
:101310006D10641C002DE4D132466946B8F1000F0F
:1013200003A802D000F045FB01E000F056FBC9E93C
:101330000001C9F808200AB0BDE8F087387A00003B
:10134000007B00F08000704770B516460C460546DD
:10135000FFF790FE036893F80101012806D0FF2CE7
:101360000FD8185D68B101202C7070BDD3F807014B
:101370003246214603F2071303442846BDE8704075
:1013800018474FF0FF3070BD4FF0000200B5134614
:1013900094469646203922BFA0E80C50A0E80C5095
:1013A000B1F12001BFF4F7AF090728BFA0E80C5046
:1013B00048BF0CC05DF804EB890028BF40F8042B3F
:1013C00008BF704748BF20F8022B11F0804F18BFAC
:1013D00000F8012B70477546FFF748FEAE46050042
:1013E0006946534620F00700854618B020B5FEF741
:1013F00051FFBDE820404FF000064FF000074FF0CE
:1014000000084FF0000B21F00701AC46ACE8C00922
:10141000ACE8C009ACE8C009ACE8C0098D4670472B
:101420003A2800D2303820F02002412A01D3A2F11C
:101430003700884201D34FF0FF30704710B50446A3
:10144000AFF300802046BDE81040FEF70EBF00005D
:101450004FF0013C50F8042B51F8043B9A4221D143
:10146000A2EB0C03934313EACC1317D150F8042BCF
:1014700051F8043B9A4215D1A2EB0C03934313EAB3
:10148000CC130BD150F8042B51F8043B9A4209D1EC
:10149000A2EB0C03934313EACC13DBD04FF0000014
:1014A000704700BFD01A01BAB1FA81F101F01801FA
:1014B00022FA01F0CB40C1F12001DBB2C0B2C01A68
:1014C0002CFA01F3D11A914311EAC311E6D1704706
:1014D0005FEA400C08BF91F0000F4FEA8C234FEAFF
:1014E000C12243EA51514FEA1C5018BF00F5F040A9
:1014F0004FEA300018BF41F000415FEA6C5C00F039
:101500002980BCF1FF3F08BF40F080407047130CBA
:1015100006BF12044FF0100C4FF0000C130E04BF66
:1015200012020CF1080C130F04BF12010CF1040C91
:10153000930F04BF92000CF1020CD30F04BF5200B2
:101540000CF1010C11464FF00002A0F11F00A0EBBE
:101550000C00704711F0004F08BF704731F0004198
:101560003FF4D5AF0B0C06BF09044FF0100C4FF041
:10157000000C0B0E04BF09020CF1080C0B0F04BF8A
:1015800009010CF1040C8B0F04BF89000CF1020C53
:10159000CB0F04BF49000CF1010CCCF12003A0EBF0
:1015A0000C0022FA03F302FA0CF241EA030100F103
:1015B0000100704720F07F4C80EA030023F07F4752
:1015C000ACEB070303F57C5300F0004003F1FF038D
:1015D0002DE980494FEA154B09B44FEA144325EA37
:1015E0000B4E24EA03480FF2042606EB13274908A2
:1015F0003E785FEA320203FB0667C7F5000707FB88
:1016000006F64FEA54374FEAD64606F1020607FBC4
:10161000066CCCF1005C4FEA1C472CEA074C07FB38
:1016200006F40CFB06F504EB15464FEA961634BF9C
:1016300000204FF000404FEAD13706FB07FC4FEA8D
:101640001C4C0CFB0BF7D21B03FB0CF761EB0701E7
:101650000CFB0EF7B0EB074072EB17420CFB08F7E0
:1016600034BFA2EB0742B2EB074261EB17414FEAEE
:101670000C444FEA910706FB07FC4FEA1C4C0CFB9D
:101680000BF7B0EBC74072EB573203FB0CF734BFDC
:10169000A2EBC742B2EBC74261EB57310CFB0EF72E
:1016A000B0EBC70072EB57720CFB08F734BFA2EB2C
:1016B000C702B2EBC70261EB5771039F4FEA81612A
:1016C00041EA921104EBCC044FEAD1374FEA82622F
:1016D00006FB07FC42EA90124FEA80604FEA1C4C7E
:1016E0000CFB0BF7D21B03FB0CF761EB07010CFBA8
:1016F0000EF7B0EB074072EB17420CFB08F734BF54
:10170000A2EB0742B2EB074261EB17414FEA8C555F
:101710004FEA910704EB9C2406FB07FC4FEA1C4CA4
:101720000CFB0BF7B0EBC74072EB573203FB0CF727
:1017300034BFA2EBC742B2EBC74261EB57310CFB9F
:101740000EF7B0EBC70072EB57720CFB08F734BF13
:10175000A2EBC702B2EBC70261EB577115EB4C2548
:101760004FEA816141EA92114FEA82624FEAD13732
:1017700042EA901206FB07FC44F100044FEA806045
:101780004FEA1C4C0CFB0BF7D21B03FB0CF761EB75
:1017900007010CFB0EF7B0EB074072EB17420CFB96
:1017A00008F734BFA2EB0742B2EB074261EB1741E7
:1017B00015EB1C154FEA813141EA92414FEA823222
:1017C00042EA90424FEA80304FEA0C7644F100043E
:1017D00048EA03434EEA0B484FF0000EB2EB080C08
:1017E00071EB030724BF624639464EEB0E0E4FF0F5
:1017F000000B0018524149414BEB0B0BB2EB080CAC
:1018000071EB03077BF1000B24BF624639464EEBB8
:101810000E0E4FF0000B0018524149414BEB0B0BE1
:10182000B2EB080C71EB03077BF1000B24BF62469F
:1018300039464EEB0E0E51EA020718BF46F001067C
:1018400016EB0E7655F1000254F1000103D5BDE808
:101850008901BDE80088BDE88901BDE80048B619E6
:10186000524141EB0101A3F10103704780807F7E6B
:101870007D7C7B7A79787776767574737271717006
:101880006F6E6E6D6C6C6B6A6A69686867666665B8
:101890006464636362616160605F5F5E5E5D5D5C46
:1018A0005C5B5B5A5A5959585857575656555555B7
:1018B0005454535352525251515050504F4F4F4E17
:1018C0004E4D4D4D4C4C4C4B4B4B4A4A4A49494965
:1018D00048484847474747464646454545444444A7
:1018E000444343434342424242414141002B26D4B8
:1018F000770021D01CB54FEA370703B44FF0100032
:101900004FF010014FF000000FBCBDE810400BF18C
:10191000010BBBF1010F08BF5FEA170722BF12F1ED
:10192000010211F101014FF0004143F1000300F009
:10193000004043EA00007047F9D35708DAE746EA67
:10194000064613F1400F4FEA16461FDD13F1200F34
:10195000DFBF16430A46002120335B42C8D0C3F1E3
:10196000200746EA064602FA07F74FEA164646EA15
:101970000706C3F1200722FA03F201FA07F721FA5A
:1019800003F14FF0000342EA0702B1E746EA02061C
:1019900046EA06464FEA164646EA0106BCBF46EA54
:1019A0000646360C4FF000034FF000024FF00001E6
:1019B0009EE72DE9C048934630B491E8380007C847
:1019C00031EA400C48BF34EA430C03D5FFF7F2FD7F
:1019D000FFF78CFFF0BCBDE800882DE9C0489346B6
:1019E00030B491E8380007C810F0804F08BF13F0FA
:1019F000804F03D100F005F8FFF778FFF0BCBDE899
:101A0000008820F07F4780EA030023F07F4C07EB3B
:101A10000C03A3F57C5300F00040A3F1FE0392F009
:101A2000000F00F0B38095F0000F00F077802DE9F3
:101A300001494FEA11404FEA144621EA004800FBF1
:101A400006FC24EA064708FB06F607FB08F800FB3D
:101A500007F718EB06484CEB164C4FEA124B18EB05
:101A600007484FEA15464CEB174022EA0B4E0BFB9A
:101A700006FC25EA06470EFB06F607FB0EFE0BFBEF
:101A800007F71EEB064E4CEB164C4FF000061EEB14
:101A9000074E4CEB174B18EB0B0840F1000018EB0E
:101AA0000E0B58EB000840F100008F1A4FF00001B8
:101AB0003CBFC943661B14BFB5EB040C00213CBFFF
:101AC000C943F61B4FEA17444EEA8E0E27EA044537
:101AD0004FEA1C4704FB07622CEA074C05FB07F79B
:101AE0000CFB05F604FB0CFC16EB074642EB174219
:101AF00016EB0C4642EB1C421BEB060658EB0202AF
:101B0000414146EA9E0601D5BDE80189B619524118
:101B100041EB0101A3F10103BDE801894FEA14453E
:101B20004FEA114724EA054621EA074C05FB07F472
:101B300006FB07F70CFB06F105FB0CFC11EB07415C
:101B400044EB17444FEA124711EB0C4144EB1C44A1
:101B500022EA074C05FB07F206FB07F70CFB06F62B
:101B600005FB0CFC16EB074642EB174216EB0C4646
:101B700042EB1C456A1854F1000148BF7047B61982
:101B8000524141EB0101A3F10103704795F0000FB1
:101B900037D04FEA11424FEA144721EA024624EABD
:101BA000074C02FB07F106FB07F70CFB06F402FBF0
:101BB0000CFC14EB074441EB17414FEA154714EBBB
:101BC0000C4441EB1C4125EA074C02FB07F506FBE0
:101BD00007F70CFB06F602FB0CFC16EB074645EB81
:101BE000174516EB0C4645EB1C42121951F100014A
:101BF00048BF7047B619524141EB0101A3F10103FF
:101C000070474FEA14454FEA114724EA054621EA96
:101C1000074C05FB07F106FB07F70CFB06F24FF03C
:101C2000000605FB0CFC12EB074241EB174112EBDF
:101C30000C4251EB1C4148BF7047921841EB010127
:101C4000A3F10103704700BFFEE7000001684FF6F3
:101C5000FE72114001600021016041608160C1603D
:101C60004B49884208D14A490839496841F00F0177
:101C7000474A083A51608AE045491431884208D100
:101C800043490839496841F0F001414A083A516036
:101C90007DE03F492831884208D13D4908394968EB
:101CA00041F470613A4A083A516070E038493C3179
:101CB000884208D136490839496841F47041344AAC
:101CC000083A516063E032495031884208D13049C6
:101CD0000839496841F470212D4A083A516056E0AC
:101CE0002B496431884208D129490839496841F4AF
:101CF0007001274A083A516049E025497831884205
:101D000008D123490839496841F07061204A083AEE
:101D100051603CE01F49884206D1011F096841F02B
:101D20000F01021F116032E01A491431884208D1B4
:101D30001849091F096841F0F001164A121F116085
:101D400025E014492831884208D11249091F096841
:101D500041F470610F4A121F116018E00D493C31C7
:101D6000884208D10B49091F096841F47041094AAA
:101D7000121F11600BE007495031884207D1054915
:101D8000091F096841F47021024A121F116070474F
:101D9000080002400804024010B50022026847F61D
:101DA000F0739A430C6A8B6823430C6923434C6994
:101DB00023438C692343CC6923434C6A23438C6AB5
:101DC00023431A430260CB6843600B6883604B680F
:101DD000C36010BD7047000010B509480078401C72
:101DE0000749087008460078022801D100200870D1
:101DF00004A0FEF799FA042000F00CF810BD0000D2
:101E000081000020746869732069732065786974A3
:101E10000000000001490860704700001404014000
:101E20002DE9F04102460025002600200023002471
:101E3000002791F803C00CF00F0591F803C00CF0D7
:101E4000100CBCF1000F03D091F802C04CEA05055C
:101E500091F800C0BCF1000F31D0146800202BE0D5
:101E60004FF0010C0CFA00F3B1F800C00CEA0306C5
:101E70009E4220D183004FF00F0C0CFA03F7BC43B5
:101E800005FA03FC4CEA040491F803C0BCF1280FE6
:101E900006D14FF0010C0CFA00FCC2F814C00AE0A5
:101EA00091F803C0BCF1480F05D14FF0010C0CFABA
:101EB00000FCC2F810C0401C0828D1D31460B1F84F
:101EC00000C0BCF1FF0F34DD546800202EE000F1AB
:101ED000080C4FF0010808FA0CF3B1F800C00CEA46
:101EE00003069E4221D183004FF00F0C0CFA03F73A
:101EF000BC4305FA03FC4CEA040491F803C0BCF1AE
:101F0000280F05D100F1080C08FA0CF8C2F814806B
:101F100091F803C0BCF1480F07D100F1080C4FF055
:101F2000010808FA0CF8C2F81080401C0828CED32B
:101F30005460BDE8F0810000F0B50A46002300249B
:101F40000021002500F00046B6F1004F02D11D4EE1
:101F5000F16901E01B4E7168C0F3034583B200F4E0
:101F60004016B6F5401F08D121F07061154E766815
:101F700026F07066134F7E6012E000F48016B6F50E
:101F8000801F06D1032606FA05F4A14341F07061D3
:101F900006E0460D360103FA06F6B14341F07061E2
:101FA00022B1460D360103FA06F6314300F0004631
:101FB000B6F1004F02D1034EF16101E0014E7160B4
:101FC000F0BD0000000001400246002093680B4075
:101FD0000BB1012000E0002070470161704700BF95
:101FE000FEE700002DE9F05F04468946924620682E
:101FF00005F046FB05460E465648016856480068FF
:1020000005F068FE834605F03BFB21F000410746E2
:102010002A46334605F022F92DD3DAF8000005F000
:102020002FFB05460E464B4841684C48006805F0BA
:1020300051FE834605F024FB21F0004107462A4665
:10204000334605F00BF916D3D9F8000005F018FB5C
:1020500005460E463F4881684148006805F03AFE53
:10206000834605F00DFB21F0004107462A46334622
:1020700005F0F4F815D23B48007858B900223AA18F
:102080003AA004F015FD01203649087001213A48B4
:1020900000F081FF37A0FEF747F9012037490870AB
:1020A00055E0206805F0ECFA05460E46294801681F
:1020B0002948006805F00EFE834605F0E1FA21F09C
:1020C000004107462A46334605F0C8F83FD3DAF800
:1020D000000005F0D5FA074688461E4841681F48AB
:1020E000006805F0F7FD834605F0CAFA21F00041CB
:1020F00005463A46434605F0B1F828D3D9F8000022
:1021000005F0BEFA05460E4612488168144800687C
:1021100005F0E0FD834605F0B3FA21F000410746E3
:102120002A46334605F09AF811D30E48007858B97C
:1021300000220DA112A004F0BBFC01200949087087
:1021400001210D4800F027FF00200C490870BDE870
:10215000F09F0000A4000020180000201C000020B8
:10216000200000207900002030000000706F7374A0
:102170007572655F62616400000400401200002017
:10218000706F73747572655F676F6F640000000035
:1021900008B50121102000F0C9FB01210648FFF716
:1021A000CBFE2020ADF8000048208DF803006946E2
:1021B0000248FFF735FE08BD000230000010014064
:1021C00010B5044614B10120104908700F4800787A
:1021D00088B120210E48FFF7F7FE60B90A2001F010
:1021E00007FE00200949087020210948FFF7ECFE8E
:1021F00048B9012010BD20210548FFF7E5FE012860
:1022000001D1024908700020F4E7000040000020DE
:102210000010014008B50121102000F087FBC0200C
:10222000ADF8000010208DF8030003208DF80200A7
:1022300069460548FFF7F4FD012004490860044998
:10224000C1F89C0108BD0000001001409801224225
:102250000000224210B500200E4908600E480068B8
:1022600020F0F0000C4908600846006840F030009B
:10227000086000200949C1F8A40100F011F801200C
:102280000449086000F00CF800200449C1F8A001DE
:1022900010BD0000A0812142040C014000802142B9
:1022A00010B5022001F0CAFD10BD000008B50121E3
:1022B000082000F03BFB4FF44070ADF80000102008
:1022C0008DF8030003208DF8020069460448FFF7EB
:1022D000A7FD4FF440710248FFF77FFE08BD0000E4
:1022E000000C014010B500200E4908600E4800683F
:1022F00020F0F0000C4908600846006840F030000B
:10230000086001200949C1F8A401FFF7C9FF0120B5
:1023100004490860FFF7C4FF00200449C1F8A00188
:1023200010BD0000A0812142040C01400080214228
:1023300070B5054600241648006820F0F0001449E6
:1023400008600846006840F080000860002614E03D
:10235000002010490860FFF7A3FF01200E49C1F8D3
:10236000A0016006040E0B487C38006808B1601CB0
:10237000C4B2FFF795FF701CC6B2082EE8DB15B992
:10238000FFF7B0FF01E0FFF765FF204670BD0000DA
:10239000040C0140A08121420080214270B5044616
:1023A0001248006820F0F0001049086008460068F4
:1023B00040F03000086000200D490860002512E060
:1023C000E0090B49091D08606006040E0120094957
:1023D000C1F8A001FFF764FF002005490860FFF77E
:1023E0005FFF681CC5B2082DEADB70BD040C01401C
:1023F000A08121420080214210B50E48006820F0E3
:10240000F0000C4908600846006840F030000860A1
:102410000120094908600949C1F8A001FFF740FF00
:10242000002005490860FFF73BFF00200349C1F881
:10243000A00110BD040C0140A48121420080214272
:1024400010B50E48006820F0F0000C4908600846FE
:10245000006840F030000860002009490860094920
:10246000C1F8A401FFF71CFF0120054908600549D8
:10247000C1F8A401FFF714FF10BD0000040C0140D7
:10248000A08121420080214210B500241448006838
:1024900020F0F000124908600846006840F0800013
:1024A000086001200F490860FFF7FAFE01200E497D
:1024B000C1F8A001FFF7F4FE07E0601CC4B2FA2CDB
:1024C00003DDFFF7BDFF012010BD0648803800681E
:1024D0000028F2D10349091F086000BFF4E700009B
:1024E000040C0140A48121420080214210B5FFF775
:1024F000DDFE80216B2000F0D7F8642001F078FC2D
:1025000000216B2000F0D0F8032000F08BF80020B1
:1025100000F080F8322000F0AAF80021382000F006
:10252000C3F800216A2000F0BFF80021232000F04A
:10253000BBF88021372000F0B7F8752000F013F8C1
:102540000446682C0BD101216B2000F0ADF800216E
:102550006C2000F0A9F8322000F089F801E0012099
:1025600010BD0020FCE770B50446FFF745FFD02002
:10257000FFF714FFFFF788FF2046FFF70FFFFFF775
:1025800083FFFFF739FFD120FFF708FFFFF77CFF3C
:102590000020FFF7CDFE0546FFF752FF284670BD2D
:1025A0002DE9F04106460F4614461D46FFF724FF6D
:1025B000002141EA4601C8B2FFF7F0FEFFF764FFD1
:1025C00020B1FFF73DFF0120BDE8F0813846FFF75D
:1025D000E5FEFFF759FFFFF70FFF012101EB460171
:1025E000C8B2FFF7DBFEFFF74FFF0DE0012C04D16F
:1025F0000020FFF79DFE287003E00120FFF798FE02
:102600002870601EC4B26D1C002CEFD1FFF718FFBC
:102610000020D9E710B50446E006010E1C2000F0AA
:1026200043F810BD10B50446E006010E1B2000F073
:102630003BF810BD70B504460025BC2C01DB01251C
:1026400010E0622C01DB02250CE02A2C01DB0325C3
:1026500008E0142C01DB042504E00A2C01DB05252D
:1026600000E0062529461A2000F01EF870BD70B55E
:102670000446B4F57A7F01DD4FF47A74042C00DA55
:1026800004244FF47A7090FBF4F0401EC5B2294642
:10269000192000F009F80546264604EBD671C1F36F
:1026A0004F00FFF7C7FF70BD70B505460C46FFF73A
:1026B000A3FED020FFF772FEFFF7E6FE18B1FFF78A
:1026C000BFFE012070BD2846FFF768FEFFF7DCFE65
:1026D0002046FFF763FEFFF7D7FE18B1FFF7B0FE05
:1026E0000120EFE7FFF7ACFE0020EBE72DE9F0411A
:1026F00005460E4617469846FFF77EFE002141EA42
:102700004501C8B2FFF74AFEFFF7BEFE20B1FFF752
:1027100097FE0120BDE8F0813046FFF73FFEFFF74E
:10272000B3FE00240CE018F80400FFF737FEFFF7B3
:10273000ABFE18B1FFF784FE0120EBE7601CC4B2CA
:10274000BC42F0DBFFF77CFE0020E3E700BFFEE7C2
:102750007047000070B5002100230F22C47804B335
:10276000154C246804F4E064C4F5E064210AC1F166
:102770000403CA40447804FA03F1847814402143E6
:1027800009010E4C0678A155047804F01F050124B8
:10279000AC4005786D11AD0005F1E025C5F80041AC
:1027A00009E0047804F01F050124AC40044D0678CC
:1027B000761145F8264070BD0CED00E000E400E025
:1027C00080E100E002490143024A116070470000C5
:1027D0000000FA050CED00E0704700002DE9FF470E
:1027E00027480078012848D1264A2749274802F07F
:1027F00041FE0020FFF7E4FC2549087008460078F8
:10280000012831D1234908700320234908701D4A4B
:102810001D491E4802F02EFE18BB1C4800681F49C7
:1028200008601948006848601648006888601548C4
:10283000006804F025FF04460D461348006804F0C4
:102840001FFF06460F461148006804F019FF804636
:1028500042460B4612A0CDE90067CDE90245FDF7DF
:1028600063FD15A0FDF760FD0A480078012804D13A
:10287000134A14491448FFF7B5FBBDE8FF87000071
:1028800024000020200000201C0000201800002050
:10289000250000202600002014000020A4000020B5
:1028A000783D252E32662E793D252E32662E7A3DD4
:1028B000252E32660A0D00006F766572000000005A
:1028C00008000020040000200000002029B1064A72
:1028D00052690243044B5A6104E0034A526982433D
:1028E000014B5A61704700000010024029B1064AAE
:1028F000D2690243044BDA6104E0034AD26982439D
:10290000014BDA61704700000010024029B1064A0D
:1029100012690243044B1A6104E0034A12698243BC
:10292000014B1A61704700000010024029B1064AAD
:1029300092690243044B9A6104E0034A926982431C
:10294000014B9A61704700000010024029B1064A0D
:10295000D2680243044BDA6004E0034AD26882433F
:10296000014BDA60704700000010024030B50021D2
:102970000022002400232D4D6D6805F00C0121B1CB
:10298000042905D0082923D105E0294D056022E05E
:10299000274D05601FE0254D6D6805F47012234D2D
:1029A0006D6805F48034022505EB92421CB9214D77
:1029B000554305600BE01D4D6D6805F400351DB1F4
:1029C0001C4D5543056002E0194D5543056002E07A
:1029D000174D056000BF00BF144D6D6805F0F00194
:1029E0000909154D6B5C0568DD4045600F4D6D684C
:1029F00005F4E061090A104D6B5C4568DD408560B7
:102A00000A4D6D6805F46051C90A0B4D6B5C456851
:102A1000DD40C560054D6D6805F44041890B074DEB
:102A20006B5CC568B5FBF3F5056130BD0010024075
:102A300000127A0000093D008E0000209E00002058
:102A400010B516480078012815D104211448FFF765
:102A5000BBFA01280FD11348007860B90120114951
:102A6000087008460078012816D100220EA10FA098
:102A700004F01EF810E00B48007801280CD1042166
:102A80000748FFF7A1FA38B9002207A10AA004F00D
:102A90000FF800200349087010BD000081000020DD
:102AA0000010014011000020300000006F70656EC2
:102AB0005F72656400000000646F776E5F7265642A
:102AC00000000000704710B500F002F810BD0000D3
:102AD0000CB50020019000903348006840F480302D
:102AE0003149086000BF3048006800F400300090B1
:102AF0000198401C0190009818B90198B0F5A06F9A
:102B0000F1D12948006800F4003010B10120009094
:102B100001E0002000900098012843D1234800687C
:102B200040F01000214908600846006820F00300CA
:102B300008600846006840F0020008601A484068D3
:102B4000194948600846406848600846406840F4B3
:102B5000806048600846406820F47C104860084661
:102B6000406840F4E81048600846006840F0807013
:102B7000086000BF0C48006800F000700028F9D021
:102B80000948406820F0030007494860084640684B
:102B900040F00200486000BF0348406800F00C00AD
:102BA0000828F9D10CBD00000010024000200240AE
:102BB000042808D14FF0E021096941F004014FF0E9
:102BC000E022116107E04FF0E021096921F00401E2
:102BD0004FF0E022116170477047000010B51348B4
:102BE000006840F00100114908600846406810493B
:102BF00008400E494860084600680E4908400B49E5
:102C000008600846006820F4802008600846406894
:102C100020F4FE0048604FF41F008860FFF753FF68
:102C20004FF000600449086010BD00000010024031
:102C30000000FFF8FFFFF6FE08ED00E02DE9FF477A
:102C40000121880700F0B3F900285DD00121880731
:102C500000F09EF92D480078C8B12D48006804F0B6
:102C60000FFD04460D462B48006804F009FD06469A
:102C70000F462948006804F003FD804642460B4693
:102C800026A0CDE90067CDE90245FDF74DFB2948B7
:102C90000078002838D027480078032803D025483A
:102CA0000078042817D124480068C0432349C1F89C
:102CB000980123480078401C214908700846007894
:102CC000052821DD0020087001201B490860002034
:102CD0001849087018E01848001D0068C0431749DB
:102CE000C1F89C0117480078401C16490870084636
:102CF0000078052808DD0020087001200E49091D14
:102D0000086000200B490870BDE8FF872400002000
:102D1000200000201C00002018000020783D252EF7
:102D200032662E793D252E32662E7A3D252E32666C
:102D30000A0D0000140000209801224200002242E7
:102D40007F000020800000207FB505460C46012151
:102D50000846FFF7CBFDADF80850ADF80440002061
:102D6000ADF80A00ADF8060001A94FF0804000F070
:102D70003BF901221146900700F02AF91C208DF83A
:102D8000000002208DF8010001208DF802008DF86E
:102D900003006846FFF7DEFC0121880700F0FBF81E
:102DA0007FBD000010B501210D4800F000F9A8B169
:102DB00001210B4800F0ECF80A480078401C094952
:102DC000087008460078322808D1002006490870AB
:102DD000044908700021024800F0DDF810BD000031
:102DE000000400407E000020790000207FB50546E9
:102DF0000C4601210220FFF779FDADF80850ADF82F
:102E000004400020ADF80A00ADF8060001A90E4804
:102E100000F0EAF8012211460B4800F0D9F81D2015
:102E20008DF8000000208DF8010003208DF80200CD
:102E300001208DF803006846FFF78CFC0021024852
:102E400000F0A9F87FBD00000004004010B501218A
:102E5000084800F0ACF860B10748008840F4004032
:102E6000054908800121034800F092F8002000F095
:102E700031F810BD000800407A0000207FB50546FB
:102E80000C4601210420FFF731FDADF80450ADF8E8
:102E900000400020ADF80600ADF8020069460C487D
:102EA00000F0A2F801221146094800F091F81E2016
:102EB0008DF80C0001208DF80D0002208DF80E0019
:102EC00001208DF80F0003A8FFF744FC7FBD000030
:102ED0000008004010B5044644B10021064800F047
:102EE00080F80121044800F056F803E00021024870
:102EF00000F051F810BD00000008004010B501219D
:102F0000094800F054F868B10848008840F40040CF
:102F1000064908800121044800F03AF800210248DF
:102F200000F039F810BD0000001400407C000020C3
:102F30007FB505460C4601212020FFF7D7FCADF8F0
:102F40000450ADF800400020ADF80600ADF80200D6
:102F500069460E4800F048F8012211460B4800F07F
:102F600037F80121094800F016F837208DF80C00D9
:102F700000208DF80D0002208DF80E0001208DF844
:102F80000F0003A8FFF7E6FB7FBD00000014004020
:102F9000CA430282704721B1028842F001020280D6
:102FA00004E002884FF6FE731A400280704730B585
:102FB0000246002000230024158A05EA01039589B2
:102FC00005EA010413B10CB1012000E0002030BD7E
:102FD0001AB183890B43838102E083898B43838108
:102FE0007047818470470000002202881D4B984280
:102FF0000ED01D4B98420BD0B0F1804F08D01B4B28
:10300000984205D01A4B984202D01A4B984204D1EC
:103010004FF68F731A404B881A43174B984207D0CC
:10302000164B984204D04FF6FF431A40CB881A4300
:1030300002808B8883850B8803850A4B98420BD0CE
:10304000094B984208D00E4B984205D00D4B984240
:1030500002D00D4B984201D10B7A03860123838263
:1030600070470000002C0140003401400004004083
:1030700000080040000C0040001000400014004018
:1030800000400140004401400048014070B58CB050
:1030900006460C46154601210846FFF717FC304648
:1030A000FEF7D4FD019402951020039000200490B7
:1030B00005908020069000200790089009904FF41A
:1030C00080500A9000200B9001A93046FEF764FE64
:1030D0000CB070BD10B540F225511D4800F08BF9C1
:1030E00010B31B4800F042FAC4B21A48008800F43A
:1030F0000040C8B91748008800F4804060B10A2C2D
:1031000003D000201349088020E01248008840F4D2
:1031100000401049088019E00D2C06D10D480088A8
:1031200040F480400B49088010E00A480088C0F352
:103130000D0009490C5407480088401C05490880C7
:1031400008460088C72801DD0020088010BD000067
:10315000003801408C000020700D002010B540F2B6
:103160002551134800F047F908B3114800F0FEF963
:10317000C4B210480088B0F5806F12DA00210E4802
:10318000FFF72FFF0B48008810B90120FFF7A2FEC0
:10319000084801880088401C064A108007484454AB
:1031A00005E00448008840F400400249088010BD52
:1031B000004400407A00002000080040C0040020C5
:1031C00010B586B0044601210420FFF7AFFB0121B2
:1031D0004804FFF78BFB2E4800F0B2F80420ADF84E
:1031E000100003208DF8120018208DF8130004A998
:1031F0002848FEF715FE0820ADF8100004208DF8D1
:10320000130004A92348FEF70BFE00940020ADF83C
:103210000400ADF80600ADF80800ADF80C000C2075
:10322000ADF80A0069461A4800F034F901228021FD
:10323000174800F07BF8184A1549091D1748FFF791
:1032400025FF0121124800F065F8012240F22551C6
:103250000F4800F0FAF826208DF8140002208DF8AF
:10326000150003208DF8160001208DF8170005A821
:10327000FFF770FA41F61F4140F2E730FFF7FEFD1D
:10328000002007490880FFF725FE06B010BD0000AA
:103290000044004000080140C000002080000240BF
:1032A0007A00002010B540F22551164800F0A3F82E
:1032B000F8B1144800F05AF9C4B21348008800F479
:1032C0000040B0B910480088B0F5167F12DA00212E
:1032D0000E48FFF786FE0C48008818B901210B48FC
:1032E000FFF759FE08490888411C074A1180084920
:1032F0000C5405E00448008840F40040024908806E
:1033000010BD0000004800407C0000200014004078
:10331000C008002021B1828942F40052828104E079
:1033200082894DF6FF731A40828170471AB1838AF1
:103330000B43838202E0838A8B43838270470000C1
:1033400010B504462048844209D101218803FFF7C3
:10335000FDFA00214FF48040FFF7F8FA32E01B48F5
:10336000844209D101214804FFF7D0FA00214FF42B
:103370000030FFF7CBFA25E01548844209D101213E
:103380008804FFF7C3FA00214FF48020FFF7BEFA4C
:1033900018E01048844209D10121C804FFF7B6FAA9
:1033A00000214FF40020FFF7B1FA0BE00A488442F5
:1033B00008D101210805FFF7A9FA00214FF4801078
:1033C000FFF7A4FA10BD000000380140004400409F
:1033D00000480040004C00400050004002460020E1
:1033E000B1F5007F00D100BF13880B400BB1012065
:1033F00000E00020704770B502460024002300253D
:10340000002040F66A16B14200D100BFC1F3421558
:1034100001F01F03012606FA03F3012D02D196895C
:10342000334006E0022D02D1168A334001E0968A2D
:1034300033400C12012606FA04F41688344013B106
:103440000CB1012000E0002070BDF0B5034600245F
:1034500000260025002040F66A17B94200D100BFBF
:103460001846C1F3421401F01F06012707FA06F5BA
:10347000012C01D10C3004E0022C01D1103000E00D
:1034800014301AB107682F43076002E00768AF43A2
:103490000760F0BD2DE9F04786B005460E460024D2
:1034A000A24600BFA1460027B08900B100BF2F4649
:1034B0002C8A4CF6FF700440F08804432C82AC89BF
:1034C0004EF6F3100440B0883189084371890843EF
:1034D0000443AC81AC8A4FF6FF400440B0890443FA
:1034E000AC8201A8FFF742FA1F48874202D1DDF8FB
:1034F00010A001E0DDF80CA0A88900F4004040B164
:103500000AEBCA0000EB0A1031684900B0FBF1F881
:1035100007E00AEBCA0000EB0A1031688900B0FB33
:10352000F1F86420B8FBF0F004012009642101FBEC
:103530001089A88900F4004040B1322000EBC90096
:10354000B0FBF1F000F00700044308E0322000EB8C
:1035500009106421B0FBF1F000F00F0004432C814E
:1035600006B0BDE8F08700000038014001468888B9
:10357000C0F308007047C1F308028280704700BFA3
:10358000FEE7490050EAC12018BF04204A0D18BFC9
:1035900040F0010040F2FF72B2EB515F08BF40F013
:1035A0000200012808BF052070472DE9F0414F1E99
:1035B00000EBC7010446D1E9000115461E4637F06D
:1035C00006020DD02A46334603F04AFD7F1E04EB67
:1035D000C703D3E9002303F0F3FA37F00602F1D171
:1035E000022F25D0042F13D0062F18BFBDE8F0817D
:1035F0002A46334603F034FDD4E90A2303F0E0FA07
:103600002A46334603F02CFDD4E9082303F0D8FA08
:103610002A46334603F024FDD4E9062303F0D0FA0A
:103620002A46334603F01CFDD4E9042303F0C8FA0C
:103630002A46334603F014FDD4E9022303F0C0FA0E
:103640002A46334603F00CFDD4E90023BDE8F041DF
:1036500003F0B6BA012204F0E6BB03F0B1BA0022CF
:1036600013461046114603F067BB0000024A0020D3
:10367000110704F0D8BB000001FDFFFF30380A2815
:1036800001D20120704700207047014600BF7047FB
:103690002DE9FE4F06460F460025684601F0ECF97D
:1036A000002442E056F8240057F82410A0EB010A49
:1036B000BAF1000F01DB514601E0CAF100010846F2
:1036C00004F0AAF983464FF08F4104F073F8804666
:1036D0005DF82400002104F02FF916D05DF82410C5
:1036E000404604F067F882464FF07E5104F0F2FA4B
:1036F000814629F0004A0F48416A504604F0B8FA62
:1037000012D20120A04005430EE00A48C16940469C
:1037100004F0AEF905D30748016A404604F0A8FA60
:1037200002D20120A0400543641C032CBADB2846CA
:10373000BDE8FE8FDC7E00082DE9F04D8D4F21F0B5
:10374000004A86B005460C46BA452ADBAAEB0700BC
:1037500028430AD08848824501DC1AD1CDB106B091
:103760002846BDE8F04DFFF775BF844A844B2846D4
:1037700003F076FC07460E46824A834B28462146D4
:1037800003F06EFC06B03A463346BDE8F04D03F058
:1037900017BA0120FDF764F806B0BDE8F04DFFF759
:1037A0005EBF7A48824542DABAF1795F0BDA284681
:1037B000FFF7E7FE042808BFFFF758FF284606B0CA
:1037C0002146BDE8F08D2A460B46104603F048FC22
:1037D000834602466E480E460B4606217844FFF7A4
:1037E000E4FE5A46334603F03BFC804669488A466D
:1037F0005A46334604217844FFF7D7FE5A463346EB
:1038000003F02EFC00223B4603F0DAF902460B4699
:103810004046514603F090FA2A46234603F020FC26
:1038200006B02A462346BDE8F04D03F0C9B9284644
:1038300024F0004100223D463B4603F045FD4FF099
:10384000FF3204F0F0FA0646024653480F460B4694
:1038500006217844FFF7A9FE32463B4603F000FC00
:10386000CDE900014D4832463B4604217844FFF73C
:103870009CFE32463B4603F0F3FB00222B4603F04E
:103880009FF9834602913046394602F099FF8046FF
:1038900043480D46504517DCDDE900015A46029BBE
:1038A00003F04AFA42462B4603F0DAFB42462B4627
:1038B00003F086F9012204F0B6FA304A304B03F0E7
:1038C000F5FD304A304B4CE04FF0000A52460B46B3
:1038D000404603F075F9CDE9031052462B461046D9
:1038E000194603F0BDFB32463B4603F0EDFCDDE933
:1038F000033203F021FA06460F46DDE900015A467D
:10390000029B03F019FA83460091012230463946A2
:1039100004F089FA194A1A4B03F0D6FC06460F4602
:1039200001224046294604F07EFA5A46009B03F0E5
:1039300097FB32463B4603F0B9FD06460F4601228F
:103940005046294604F06FFA0E4DDFF858802A469B
:10395000434603F0B9FC32463B4603F0B5FC2A4629
:10396000434603F0B1FC002CD8BF81F0004106B003
:10397000BDE8F08D0000F03F0000F07F075C1433DD
:1039800026A6913C182D4454FB21F93F0000E03F4E
:10399000585300006E530000E2520000F85200003D
:1039A0003333EF3FFB21E93F2DE9F84F04460D4645
:1039B00021F0004000917349814211DC7249884234
:1039C00001DC06D12CB120462946BDE8F84FFFF7AF
:1039D00041BE6E48002DCCBF6D496E49BDE8F88FE1
:1039E0006D49814211DD6D498142D8BF4FF0FF36EC
:1039F0006DDD20462946FFF7C4FD042808BFFFF708
:103A000035FE20462946BDE8F88F6549654F25F00B
:103A10000045814233DD6449814219DD002632468A
:103A20004FF080432046294603F0CAF880468A4674
:103A300001222046294604F0F6F900223B4603F015
:103A400035FD4246534603F077F904460D463EE005
:103A500001260022BA463B462046294603F0B0F82C
:103A600080460F46002253462046294603F01EFD9D
:103A700042463B4603F060F904460D4627E04B49B9
:103A800081421BDDDFF828A1022600225346204692
:103A9000294603F0E5FA00223B4603F091F8804600
:103AA0000F46002253462046294603F0FFFC4246BB
:103AB0003B4603F041F904460D4608E00326224642
:103AC0002B4600203B4903F037F904460D462246B9
:103AD0002B461046194603F0C3FA8B46824602462F
:103AE0000B4603F0BDFA07460246334888460B46AC
:103AF00006217844FFF759FD52465B4603F0B0FAC1
:103B000082462E488B463A46434605217844FFF7C5
:103B10004CFD3A46434603F0A3FA02460B46002EFC
:103B2000504659460CDA03F04BF822462B4603F078
:103B300097FA01B022462B46BDE8F04F03F0C4BB14
:103B400003F03EF822462B4603F08AFA1C4A7A44D8
:103B500002EBC603D3E9002303F0A8FC22462B4660
:103B600003F0A4FC174A7A4402EBC603D3E900230E
:103B700003F0AAFB009A002AB8BF81F00041BDE81B
:103B8000F88F0000000010440000F07F182D44540E
:103B9000FB21F93FFB21F9BF0000DC3F0000203E84
:103BA0000000F33F0000F03F0000E63F00800340CC
:103BB0000000F83F0000F0BF02510000C0500000BC
:103BC0005E500000265000002DE9F04D9446CCF1E7
:103BD000000423F000464CEA0404524F46EAD47431
:103BE0009A46884621F00042BC4206D8454240EA47
:103BF000050442EAD474BC4204D9BDE8F04D6246E3
:103C0000FFF72BBDAAF14055A5F17F6555EA0C04DD
:103C10000BD0022404EAAA74434DDFF810E144EA11
:103C2000D87452EA000B04D00CE0BDE8F04DFFF769
:103C3000BBBE002C14BF012CBDE8F08D022C30D08F
:103C4000032C32D056EA0C0B0AD0BE4220D1BA4225
:103C500009D126F0804622F080423346114617E013
:103C600000291ADB25E0DFF8C8B0FB44002C04BFB4
:103C7000DBE90001BDE8F08D012C02BFDBE90001AA
:103C800081F00041BDE8F08D022C0AD0032C0CD04D
:103C9000BA4212D1B8F1000F0BDA23482549BDE82A
:103CA000F08D28462449BDE8F08D28467146BDE8D0
:103CB000F08D1D482149BDE8F08D921B12153C2A5C
:103CC000C4BF19481D490EDCBAF1000FBEBF12F186
:103CD0003C0F0020014606DB624603F02DF821F080
:103CE0000041FFF761FE002C08BFBDE8F08D012CFC
:103CF00004BF81F00041BDE8F08D114A114B022C48
:103D000007D003F0D3FB2A46BDE8F04D0A4B03F081
:103D1000CDBB03F0CBFB2A46BDE8F04D064B03F0CC
:103D2000D3BA00000000F07F182D4454FB2109C0D5
:103D3000BA4F0000FB21F9BFFB210940FB21F93FED
:103D4000075C143326A6A13C2DE9F0410446E07837
:103D500000F0C006E07800F03F05607800F0010058
:103D600098B1EF102846E91705EB5171C910A5EB82
:103D7000C101491C01F0FF080B48006820B10A4846
:103D8000414602683846904700BF607800F008005E
:103D900030B10548406818B1B011034A51688847EE
:103DA0000020BDE8F0810000B000002010B56FF0E9
:103DB0000400FEF7FDFE0A4800680A49B0FBF1F076
:103DC000094908700846007800EB4001C1EBC010BB
:103DD0004FF6FF7101EAC0000449088010BD0000E1
:103DE0002C00002000127A008200002084000020B5
:103DF0000146114A12884A434FF0E0235A610022DB
:103E00009A611A46126942F001021A6100BF4FF02E
:103E1000E022106900F001021AB100F48032002A99
:103E2000F5D04FF0E022126922F001024FF0E023BA
:103E30001A6100229A617047840000200146114AED
:103E400012784A434FF0E0235A6100229A611A46E1
:103E5000126942F001021A6100BF4FF0E0221069BE
:103E600000F001021AB100F48032002AF5D04FF0C0
:103E7000E022126922F001024FF0E0231A610022D1
:103E80009A6170478200002070B50446601DFCF7FF
:103E9000F1FB064603F0C0FD054603F09DFD014918
:103EA000087070BD2800002038B5044664B1202099
:103EB0008DF8000028208DF8010030208DF80200D8
:103EC00038208DF8030004E0A32204216846FCF7A3
:103ED0003BFC6A46042140F69E2002F07FFB01F085
:103EE00069FF38BD3EB5044602208DF80000CA20A7
:103EF0008DF80100E3208DF8020009208DF8030001
:103F00006A460421682002F069FBA3208DF80000B6
:103F100004F0400048B1C0208DF80100C8208DF8A1
:103F20000200C2208DF8030006E0A3208DF80100F6
:103F30008DF802008DF8030004F4C07048B1C4206D
:103F40008DF80400CC208DF80500C6208DF8060001
:103F500006E0A3208DF804008DF805008DF806001A
:103F6000A3208DF807008DF808008DF809006A4637
:103F70000A2140F6A72002F031FB04F0030018B13B
:103F800020208DF8000002E0D8208DF800006A465D
:103F9000012140F6B62002F021FB04F0200018B108
:103FA000012000F0ADF802E0002000F0A9F804F4D0
:103FB000C07008B304F4807060B1B2208DF80000C6
:103FC0008B208DF80100B6208DF802009B208DF823
:103FD00003000BE0B0208DF8000080208DF8010078
:103FE000B4208DF8020090208DF803006A46042169
:103FF00040F6A22002F0F2FA04F0010020B3F8200B
:104000008DF800006A4601214FF40B6002F0E6FAD9
:10401000FA21072000F02CFC072000F0F3FB012020
:1040200000F013FC642000F0F3FC4FF4FA7000F091
:1040300002FDC821304800F0A3FB282000F0BCFBA3
:104040000A2000F0CCFB08E0D8208DF800006A467A
:1040500001214FF40B6002F0C1FA04F0020018B124
:10406000D9208DF8000002E0D8208DF800006A46C3
:10407000012140F23D7002F0B1FA04F0040018B1E1
:10408000012000F069F802E0002000F065F804F07B
:10409000100018B10120FFF707FF02E00020FFF732
:1040A00003FF44F008001549488101F083FE002019
:1040B0001249887304F0400018B10846807B801DC7
:1040C000887304F4C07020B10C48807B801D0B49BC
:1040D000887304F0140020B10848807B1030074931
:1040E000887304F0030020B10448807B001D03495D
:1040F000887300203EBD000009E3CA02B000002022
:104100003EB504466CB10EA1D1E900208968CDE925
:10411000002002916A4609214FF4976002F05EFA8E
:104120003EBD0AA2D2E900109268CDE901020091D9
:104130006A4609214FF4976002F050FAF0E7000058
:10414000B8AAB38DB4980D355D000000B8AAAAAA2C
:10415000B088C3C5C700000038B5044664B1C020AC
:104160008DF80000C2208DF80100C4208DF80200F7
:10417000C6208DF8030004E08B2204216846FCF77A
:10418000E3FA6A46042140F6982002F027FA01F08B
:1041900011FE38BD10B5C8234FF48062024940F6C5
:1041A000F63001F09BFC10BD047F00082DE9F04FB4
:1041B0008DB00746884615469946DDE9166B002402
:1041C000002030806B49887B5A4605A901F052FDDA
:1041D00018B1601E0DB0BDE8F08F6648807A00F01F
:1041E0001400002867D09DF8140000069DF81510F3
:1041F00040EA01409DF8161040EA01209DF8171092
:10420000084328609DF8180000069DF8191040EA40
:1042100001409DF81A1040EA01209DF81B10084348
:1042200068609DF81C0000069DF81D1040EA0140E2
:104230009DF81E1040EA01209DF81F100843A86059
:104240009DF8200000069DF8211040EA01409DF8ED
:10425000221040EA01209DF823100843E86004F191
:104260001000C4B22868001401906868001402901D
:10427000A86800140390E868001404900198404373
:10428000029901FB0100039901FB0100049901FB64
:10429000010ABAF1706F02DBBAF1885F05DD01F047
:1042A00089FD00203080401E94E7B6F9000040F4FC
:1042B0008070308000BF2F48807A00F0400020B32B
:1042C00005A9601C085C095D40EA012000B2A8F85D
:1042D000000005A9E01C095C05AAA01C105C41EACD
:1042E000002000B2A8F8020005A9601D095C201D8D
:1042F000105C41EA002000B2A8F80400A01DC4B27E
:10430000B6F9000040F0080030801A48408900F4F7
:10431000C07008B305A9601C085C095D40EA012073
:1043200000B2388005A9E01C095C05AAA01C105C3D
:1043300041EA002000B2788005A9601D095C201DBB
:10434000105C41EA002000B2B880A01DC4B2B6F9EA
:10435000000040F0700030800648807A00F00300D2
:1043600018B105A90819FFF7EFFC484601F048F815
:1043700000202FE7B000002070B588B0064601A8E5
:1043800001F000FABDF804000021C90341EA5045DC
:10439000C4034448007A00F0030056F8200005905A
:1043A0004048007A00F0040010B1059840420590A2
:1043B0003C48007AC0F3C10056F820000690394806
:1043C000007A00F0200010B106984042069035486F
:1043D000007AC0F3811056F8200007903148008918
:1043E00000F4807010B10798404207900598C117FB
:1043F000A0FB042301FB043100FB0510810041EA0E
:10440000927005900698C117A0FB042301FB0431AC
:1044100000FB0510810041EA927006900798C117D1
:10442000A0FB042301FB043100FB0510810041EADD
:10443000927007900598000E8DF808000598000C02
:104440008DF809000598000A8DF80A000598C0B299
:104450008DF80B000698000E8DF80C000698000CE5
:104460008DF80D000698000A8DF80E000698C0B26F
:104470008DF80F000798000E8DF810000798000CBB
:104480008DF811000798000A8DF812000798C0B245
:104490008DF8130002AA0C214FF4257002F09EF84B
:1044A00008B070BDB000002030B585B0044616A23B
:1044B00007CA02AB07C3C82C03DD4FF0FF3005B0BD
:1044C00030BDC82090FBF4F0401E85B2280A8DF85C
:1044D0000000E8B28DF801006A46022140F2162081
:1044E00002F07CF810B14FF0FF30E8E702AA0C218F
:1044F00040F6C12002F072F810B14FF0FF30DEE755
:10450000044884810020DAE7FEF2ABC4AAF1DFDFC1
:10451000BBAFDFDFB00000201FB504464848007A7B
:1045200000F0030054F8200001904548007A00F0A4
:10453000040010B10198404201904148007AC0F354
:10454000C10054F8200002903D48007A00F020009D
:1045500010B10298404202903948007AC0F38110AD
:1045600054F8200003903648008900F4807010B1A0
:104570000398404203903349019880FB0101800F6A
:1045800040EA810001902F49029880FB01108200CF
:1045900042EA917002902B49039880FB011082003F
:1045A00042EA917003900198000E8DF80000019886
:1045B000000C8DF801000198000A8DF802000198A6
:1045C000C0B28DF803006A4604214FF4747002F003
:1045D00005F818B14FF0FF3004B010BD0298000E7E
:1045E0008DF800000298000C8DF801000298000A76
:1045F0008DF802000298C0B28DF803006A460421CB
:104600004FF4757001F0EAFF10B14FF0FF30E3E7AF
:104610000398000E8DF800000398000C8DF801003F
:104620000398000A8DF802000398C0B28DF80300C9
:104630006A4604214FF4767001F0D0FFCCE7000009
:10464000B000002009E3CA0210B586B0044647A0B6
:104650000068039046A00068029046A000680190A0
:1046600045A00068009004F0030003A9085C8DF8E1
:10467000140003A8C4F3C101405C8DF8150003A821
:10468000C4F38111405C8DF8160004F0030002A908
:10469000085C8DF8100002A8C4F3C101405C8DF8DD
:1046A000110002A8C4F38111405C8DF8120005AA24
:1046B000032140F2264001F091FF18B14FF0FF3086
:1046C00006B010BD04AA032140F22A4001F086FF83
:1046D00010B14FF0FF30F3E7019805900098049077
:1046E00004F0040058B19DF8140040F001008DF86A
:1046F00014009DF8100040F001008DF8100004F047
:10470000200058B19DF8150040F001008DF815000B
:104710009DF8110040F001008DF8110004F4807044
:1047200058B19DF8160040F001008DF816009DF874
:10473000120040F001008DF8120005AA03214FF489
:10474000886001F04BFF10B14FF0FF30B8E704AACA
:10475000032140F2314001F041FF10B14FF0FF3032
:10476000AEE7064804810020AAE700004CCD6C00AB
:104770000CC92C003656760026466600B000002094
:10478000F8B505460E464FF47A7095FBF0F000FB45
:1047900006F4200E8DF80000200C8DF80100200A90
:1047A0008DF80200E0B28DF803006A4604214FF450
:1047B000AE7001F013FFF8BD38B50446052094FB38
:1047C000F0F084B220128DF80000E0B28DF8010004
:1047D0006A4602214FF4AD7001F000FF38BD38B5D4
:1047E0000446052094FBF0F084B220128DF80000FE
:1047F000E0B28DF801006A4602214FF4AC7001F07E
:10480000EDFE38BD38B504460020009004F00100EC
:1048100020B19DF8000040F03000009004F002004C
:1048200020B19DF8000040F00C00009004F004005E
:1048300020B19DF8000040F0030000906A4601217D
:104840004FF4A47001F0CAFE38BD38B50446012CFF
:1048500001DA012402E0042C00DD0424601EC0B251
:1048600000906A46012140F24F1001F0B7FE38BDBA
:104870002DE9FC4706460F4606F0070010B1B7F5D4
:10488000C86F03DD4FF0FF30BDE8FC87384603F00A
:10489000DBF88146594902F08DFF8046684600F0FA
:1048A0004BFF9DF80000022806D0042816D00828E7
:1048B00026D0102848D135E04FF08D41404603F016
:1048C0000BF9814603F088F884B24D49404603F065
:1048D00003F9814603F080F885B238E04FF08C414F
:1048E000404603F0F9F8814603F076F884B2454972
:1048F000404603F0F1F8814603F06EF885B226E0F9
:104900004FF08B41404603F0E7F8814603F064F82E
:1049100084B23D49404603F0DFF8814603F05CF87D
:1049200085B214E04FF08A41404603F0D5F8814645
:1049300003F052F884B23549404603F0CDF8814681
:1049400003F04AF885B202E04FF0FF309CE700BF69
:1049500020128DF80400E0B28DF8050028128DF8C1
:104960000600E8B28DF8070006F00100A0B101AA28
:1049700002214FF4EA7001F031FE10B14FF0FF3028
:1049800082E70DF1060202214FF4927001F026FE3B
:1049900010B14FF0FF3077E706F00200A0B101AA96
:1049A00002214FF4EC7001F019FE10B14FF0FF300E
:1049B0006AE70DF1060202214FF4947001F00EFE39
:1049C00010B14FF0FF305FE706F00400A0B101AA7C
:1049D00002214FF4EE7001F001FE10B14FF0FF30F4
:1049E00052E70DF1060202214FF4967001F0F6FD38
:1049F00010B14FF0FF3047E7002045E70000484383
:104A0000000040460000C045000040450000C04492
:104A100038B50446052094FBF0F085B228128DF8D5
:104A20000000E8B28DF801006A4602214FF4EF70F1
:104A300001F0D4FD38BD38B50446052094FBF0F0F4
:104A400085B228128DF80000E8B28DF801006A46A0
:104A500002214FF4ED7001F0C1FD38BD00BF054AE1
:104A6000128802F04002002AF9D0C2B2014B1B1D8D
:104A70001A807047003801407CB5054628494968CE
:104A8000087801AB04220D21FDF78AFD08B107204B
:104A90007CBD9DF80700C0F301109DF8041001F0E3
:104AA000E00140EAE1008DF800009DF80700C0F346
:104AB00081009DF8051001F0E00140EAE1008DF869
:104AC00001009DF8070000F003009DF8061001F0BA
:104AD000E00140EAE1008DF8020000241CE01DF82E
:104AE000040018B9002045F8240013E00D4845F8EB
:104AF000240006E055F824000B4902F0EDFF45F8CC
:104B000024001DF80400401EC0B20DF80400002867
:104B1000F0D100BF601CC4B2032CE0DB0020B7E77B
:104B2000440000207B14AE3E1D5A843F2DE9F04F17
:104B300087B005460C46914601208DF810000020F4
:104B40008DF81100FE4A1268917CFD4A5268107877
:104B500004AB0222FDF7CAFD20B14FF0FF3007B0D1
:104B6000BDE8F08FC820FFF743F900208DF8100052
:104B7000F34A1268D17BF24A5268107804AB0122E2
:104B8000FDF7B4FD10B14FF0FF30E8E7EC4A1268D2
:104B90005179EB4A5268107804AB0122FDF7A6FD6B
:104BA00010B14FF0FF30DAE7E54A1268917CE44A31
:104BB0005268107804AB0122FDF798FD10B14FF058
:104BC000FF30CCE7DE4A1268D17DDD4A52681078AA
:104BD00004AB0122FDF78AFD10B14FF0FF30BEE7B4
:104BE000D74A12681179D64A5268107804AB01226C
:104BF000FDF77CFD10B14FF0FF30B0E70C208DF8D1
:104C00001000CF4A12681179CD4A5268107804AB6F
:104C10000122FDF76BFD10B14FF0FF309FE70F2031
:104C2000FFF7E6F8C648806A407A8DF81000C44A5B
:104C300012689178C24A5268107804AB0122FDF7DD
:104C400055FD10B14FF0FF3089E7BD48806A007A0A
:104C50008DF81000BA4A12685178B94A5268107833
:104C600004AB0122FDF742FD10B14FF0FF3076E7B3
:104C7000B9F1000F07D0B248806A807A40F0E000B6
:104C80008DF8100004E0AE48806A807A8DF810003C
:104C9000AB4A12689179AA4A5268107804AB012293
:104CA000FDF724FD10B14FF0FF3058E7B9F1000FC8
:104CB00007D0A348806AC07A40F0E0008DF8100069
:104CC00003E0A048C07A8DF810009D4A1268D1799F
:104CD0009B4A5268107804AB0122FDF707FD10B122
:104CE0004FF0FF303BE7B9F1000F02D0C820FFF7CB
:104CF0007FF840208DF81000914A12681179904A8F
:104D00005268107804AB0122FDF7F0FC10B14FF0AF
:104D1000FF3024E778208DF81000894A1268517915
:104D2000874A5268107804AB0122FDF7DFFC10B10E
:104D30004FF0FF3013E783498889FFF759F80020C7
:104D40008DF810007E4A126851797D4A52681078B9
:104D500004AB0122FDF7CAFC10B14FF0FF30FEE6B4
:104D6000774A1268917A764A5268107804AB022228
:104D7000FDF716FC10B14FF0FF30F0E69DF8110082
:104D80009DF8101040EA012B0C209BFBF0F0C6B2FE
:104D90000020A86068602860A06060602060824693
:104DA00065E0674A1268D17A654A5268107804ABA8
:104DB0000C22FDF7F5FB10B14FF0FF30CFE69DF868
:104DC00011009DF8101040EA012000B2ADF8080073
:104DD0009DF813009DF8121040EA012000B2ADF8D2
:104DE0000A009DF815009DF8141040EA012000B259
:104DF000ADF80C00BDF90810206808442060BDF92A
:104E00000A10606808446060BDF90C10A06808448E
:104E1000A0609DF817009DF8161040EA012000B22E
:104E2000ADF800009DF819009DF8181040EA012027
:104E300000B2ADF802009DF81B009DF81A1040EA80
:104E4000012000B2ADF80400BDF900102868084444
:104E50002860BDF90210686808446860BDF9041054
:104E6000A8680844A8600AF1010000F0FF0AB245F2
:104E700097DB3448D0F800C02868C117090441EA1C
:104E800010410704624600233846FBF716FA324603
:104E90000023CDE90201FBF710FA28602948D0F879
:104EA00000C06868C117090441EA1041070462465E
:104EB00000233846FBF701FA32460023CDE9020110
:104EC000FBF7FBF968601F48D0F800C0A868C1175D
:104ED000090441EA10410704624600233846FBF703
:104EE000ECF932460023CDE90201FBF7E6F9A860B0
:104EF0001448D0F804C02168C817000440EA1148DB
:104F00000F046246002338464146FBF7D6F9324685
:104F10000023CDE90201FBF7D0F920600948D0F861
:104F200004C06068C117090441EA104107046246E1
:104F300000233846FBF7C1F93246002304E00000A5
:104F400044000020DC7E0008CDE90201FBF7B5F942
:104F500060601148D0F804C0A068C117090441EA94
:104F600010410704624600233846FBF7A6F9324693
:104F70000023CDE90201FBF7A0F9A060A06800289A
:104F800004DDA068A0F58030A06003E0A06800F513
:104F90008030A0600020E2E5DC7E00082DE9FC5FA7
:104FA00006460F4600253D494968087801AB0322B3
:104FB0000D21FDF7F5FA10B10720BDE8FC9F9DF823
:104FC000040000F01F008DF804009DF8050000F0BB
:104FD0001F008DF805009DF8060000F01F008DF8F9
:104FE0000600002456E056F8240057F82410A0EBE1
:104FF000010BBBF1000F01DB594601E0CBF10001D1
:10500000084602F009FD4FF08F41009002F0D2FBFC
:10501000814601A8005D68B32149086802F014FDCB
:10502000834659461F4802F0C5FB804604E01E49EE
:10503000404602F051FD804601A8005D401EC0B20E
:1050400001A908550028F2D14146484602F0B2FBBA
:1050500083464FF07E5102F03DFE82462AF0004B1F
:105060000F488169584602F003FE12D20120A04089
:1050700005430EE00A480169484602F0F9FC05D3F1
:1050800007484169484602F0F3FD02D20120A040E2
:105090000543641C032CA6DB28468EE74400002051
:1050A000DC7E000800B04C4554E3853F10B5044653
:1050B000204600F00FF80346E01C00F00BF843EA2E
:1050C000C00083B2A01D00F005F843EA801083B24F
:1050D000184610BD014691F90020002A01DD00208C
:1050E0001EE091F90020002A01DA042018E091F96D
:1050F0000120002A01DD012012E091F90120002A9F
:1051000001DA05200CE091F90220002A01DD0220DD
:1051100006E091F90220002A01DA062000E00720CB
:105120007047000086B04FF4A060FDF74BFBFEF720
:105130003DFE4FF4E13001F091FB4FF4E130FEF71A
:105140003FF84FF4E13001F0D9FBFDF763F8FDF7CC
:105150001FF8FDF7CBF901205C4908605C49C1F8F4
:105160009C0141F61F4140F2E730FDF73FFE41F65A
:105170001F4140F2E730FDF7E7FD56A0FBF7D4F8FA
:10518000A3E059A05AA15CA25DA3CDE90232CDE90A
:1051900004105DA060A163A365A2CDE9001067A122
:1051A00069A001F013FC6B490870084600780028DC
:1051B00040D00846007868490870664800780128A1
:1051C00004D16649087001F057FA06E0614800789A
:1051D000022802D10020614908705E480078032847
:1051E0001FD100205E49087001205E490870FDF75C
:1051F0007DF9044621465CA0FBF796F800F04CFAD6
:1052000050B900225BA15CA001F052FC5DA0FBF74D
:105210008BF803205049087001215E48FDF7BBFE62
:1052200008E04C480078042804D100204D4908705B
:105230005949087047480078072813D15748006833
:10524000574908600846006802F01AFA04462246E8
:105250000B4654A0FBF768F8002246A155A001F0C8
:1052600027FC2EE03B480078082813D14B48006803
:10527000534908600846006802F002FA04462246D4
:105280000B4650A0FBF750F800223AA151A001F0C4
:105290000FFC16E02F480078092812D13F4800681B
:1052A0004F4908600846006802F0EAF904462246C1
:1052B0000B464CA0FBF738F800222EA14DA001F0C0
:1052C000F7FBFDF7BDFBFDF789FA5AE7980122428B
:1052D00000002242736C61766520697320696E69F3
:1052E0007465640A00000000646973743A00000089
:1052F000706F73333A000000706F73323A00000031
:10530000706F73313A000000686F6D65776F726B74
:105310005F6F666600000000686F6D65776F726B87
:105320005F6F6E00706F73747572655F6F66660095
:10533000706F73747572655F6F6E00006E69676879
:10534000745F6F66660000006E696768745F6F6EF9
:105350000000000010000020140000208100002048
:1053600012000020240000204D50555F496E6974E2
:105370003A25640030000000706F73747572655FC9
:105380004F4B00006D70755F646D705F696E69747E
:105390003A4F4B0000040040260000200C00002083
:1053A00000000020706F7376616C7565703D3D255F
:1053B000660D0A00706F73313A7265760000000066
:1053C00004000020706F7376616C7565793D3D2532
:1053D000660D0A00706F73323A7265760000000045
:1053E00008000020706F7376616C7565723D3D2515
:1053F000660D0A00706F73333A7265760000000024
:105400007047000070B50446002624F001041848D7
:1054100090F8240008B1002070BD1548807A10B9BA
:105420004FF0FF30F8E71248057C807A20401049A1
:1054300008740846007CA04202D04FF0FF3600E01E
:10544000002614B90A48007D18B1012001F070F956
:1054500002E0002001F06CF93CB100F0ABFC20B19F
:10546000034805744FF0FF30D6E73046D4E700001C
:10547000440000202DE9F04F99B004460D46164631
:105480004FF07E574FF000084FF000094FF0000A30
:1054900012A813A918AB0EAACDE9001014A916A8DA
:1054A000FEF784FE18B1012019B0BDE8F08FBDF8F9
:1054B0004C0000F4807000287ED00E9802F0ACFA08
:1054C00083464FF09D4102F075F907460F9802F0B0
:1054D000A3FA83464FF09D4102F06CF98046109884
:1054E00002F09AFA83464FF09D4102F063F981463B
:1054F000119802F091FA83464FF09D4102F05AF95B
:10550000824639464FF0804002F0E6FA494605905F
:1055100002F0E2FA414607904FF0404002F0DCFA18
:105520005146059002F0D8FA0690079902F0D4F897
:10553000834602F0A5F8CDE90801FEF7FDF84FF02B
:105540006632544BCDE90A0101F08AFDCDE90C0128
:1055500001F004FB206049464FF0804002F0BCFAA5
:105560004946029002F0B8FA414604904FF040409C
:1055700002F0B2FA4146029002F0AEFA03900499AA
:1055800002F0A8FB83464FF07E5102F0A5F805908B
:1055900002F076F8CDE9080139464FF0804002F07C
:1055A0009BFA4146039002F097FA494604904FF067
:1055B000804002F091FA00E068E05146039002F06A
:1055C0008BFA8346049902F087F8059002F058F8A8
:1055D000CDE90601DDE90823FEF7F6FA4FF0663261
:1055E0002C4BCDE90A0101F03BFDCDE90C0101F0A6
:1055F000B5FA28605146504602F06EFA49460490CA
:10560000484602F069FA41460390404602F064FAC7
:1056100039460190384602F05FFA0090019902F095
:105620005BF80290039902F055FB8346049902F05F
:1056300051FB059002F024F8CDE9080151463846A7
:1056400002F04AFA49460490404602F045FA0390B7
:10565000049902F041F84FF08041059002F03CFAC5
:10566000834602F00DF8CDE90601DDE90823FEF7D7
:10567000ABFA4FF06632074BCDE90A0101F0F0FCBE
:10568000CDE90C0101F06AFA306001E002200BE77D
:10569000002009E766A64C4070B50024FCF706FE22
:1056A00000F024F9002840D1782000F02FFFC4B288
:1056B0000CB1012070BD7820FFF7A4FEC4B20CB17C
:1056C0000220F7E7642000F0D3FEC4B20CB103203F
:1056D000F0E7FEF75FFDC4B20CB10420EAE715481D
:1056E000FFF7E4FC0546FEF7AFFFC4B20CB105209E
:1056F000E0E740F27310FEF7F5FBC4B20CB10620F0
:10570000D8E76420FEF7D0FEC4B20CB10720D1E781
:1057100000F0C4FF04460CB10820CBE7012000F0E4
:10572000A3FDC4B21CB10920C4E70A20C2E70020CF
:10573000C0E700007000002001461148407A30B1F7
:10574000012807D0022808D003280CD108E0022045
:1057500008700BE00420087008E00820087005E0DD
:105760001020087002E04FF0FF30704700BF04487F
:10577000C07C18B108784006000E08700020F4E7DD
:105780004400002001461348407A30B1012808D077
:1057900002280AD0032810D10BE04FF48040088083
:1057A0000EE041F69C7008800AE04FF480500880BB
:1057B00006E04FF40060088002E04FF0FF307047D1
:1057C00000BF0448C07C10B1088840100880002049
:1057D000F5E700004400002001460248007C087004
:1057E000002070474400002001460F48007A30B185
:1057F000012807D0022809D003280FD10AE0FA2097
:1058000008800EE04FF4FA7008800AE04FF47A70D6
:10581000088006E04FF4FA60088002E0002008806B
:1058200000BF00BF002070474400002001460E4822
:10583000007A30B1012807D0022808D003280CD103
:1058400008E00A4808600BE00948086008E00948D9
:10585000086005E00848086002E04FF0FF3070473C
:1058600000BF0020FBE700004400002000000343CD
:1058700000008342333303423333834101461248ED
:10588000C07A082817D2DFE800F01704070A0D10C5
:105890001318BC20088013E06220088010E02A2042
:1058A00008800DE0142008800AE00A20088007E044
:1058B0000520088004E000BF00BF0020088000BF72
:1058C00000BF002070470000440000200146064849
:1058D00090F8240010B14FF0FF3070470248C089A3
:1058E00008800020F9E70000440000201CB580205B
:1058F0008DF80000654A1268917C644A52681078FD
:105900006B460122FCF7F2FE10B14FF0FF301CBDD8
:105910006420FEF76DFA00208DF800005B4A1268E3
:10592000917C5A4A526810786B460122FCF7DEFEE1
:1059300010B14FF0FF30EAE7544A1268917D534AA4
:10594000526810786B460622FCF72AFE10B14FF021
:10595000FF30DCE79DF80500C007400F9DF80310FD
:1059600001F0010140EA41009DF8011001F0010140
:1059700040EA010494B1012C03D101214348C174D0
:1059800031E0022C03D100214048C1742BE02146B4
:105990003FA0FAF7C9FC4FF0FF30B8E73B4A126866
:1059A000D1783A4A526810786B460122FCF7F8FD2C
:1059B00010B14FF0FF30AAE79DF8000000F00F048F
:1059C0002CB93D48FAF7B0FC4FF0FF309FE7042CAC
:1059D00006D13AA0FAF7A8FC01212C48C17402E0D4
:1059E00000212A48C174FF2128488172FF202749DD
:1059F0000872FF2125484172C1724FF6FF71C181C3
:105A0000FF21017481740121017380F822100021AB
:105A100080F8231041750175163001604160816086
:105A2000163880F8241080F82510C1844FF4FA60ED
:105A300000F062FC10B14FF0FF3068E7022000F088
:105A40002BFB10B14FF0FF3061E72A2000F0CEFCB5
:105A500010B14FF0FF305AE7322000F009FD10B1CD
:105A60004FF0FF3053E70020FFF7CCFC10B14FF0B0
:105A7000FF304CE7002000F051FB10B14FF0FF3039
:105A800045E7002000F042FD002040E744000020F0
:105A9000556E737570706F7274656420736F667481
:105AA000776172652070726F6475637420726576B9
:105AB0002025642E0A000000C48C000848616C6632
:105AC0002073656E73697469766974792070617288
:105AD0007420666F756E642E0A0000002DE9F04395
